S03200005A69676265654D61747465724C69676874536F6C7574696F6E5F536978473330314D313133572D66756C6C2E73333723
S3150100000070490020F91B0001A7570001A7570001FD
S31501000010A7570001A7570001A7570001A7570001DD
S31501000020A7570001A75700013C5D0001A757000132
S31501000030A7570001EC5C0001A7570001A757000173
S31501000040A7570001A7570001A7570001A7570001AD
S31501000050A7570001A7570001A7570001A75700019D
S31501000060A7570001A7570001A7570001A75700018D
S31501000070A7570001A7570001A7570001A75700017D
S31501000080A7570001A7570001A7570001A75700016D
S31501000090A7570001A7570001A7570001A75700015D
S315010000A0A7570001A7570001A7570001A75700014D
S315010000B0A7570001A7570001A7570001A75700013D
S315010000C0A7570001A7570001A7570001A75700012D
S315010000D0A7570001A7570001A7570001A75700011D
S315010000E0A7570001A7570001CD1D0001AD1D000155
S315010000F0A7570001A7570001A7570001A7570001FD
S31501000100A7570001A7570001A7570001A7570001EC
S31501000110A7570001A7570001A7570001A7570001DC
S31501000120A7570001A7570001A7570001A7570001CC
S31501000130A7570001A7570001A7570001A7570001BC
S31501000140A7570001A7570001551E0001A757000137
S31501000150A7570001A7570001A7570001A75700019C
S31501000160A7570001A757000149098000A7570001B9
S31501000170A7570001A7570001A7570001A75700017C
S31501000180A7570001A7570001A7570001A75700016C
S31501000190A7570001A7570001A7570001A75700015C
S315010001A0A7570001A75700014FF40172084B0949EF
S315010001B01A804FF20F025A80CA68074B02F4E062B6
S315010001C01343BFF34F8FCB60BFF34F8F00BFFDE7E4
S315010001D00000002000ED00E00400FA054DF6AD61D7
S315010001E00B4B9A8892B28A4211D14BF6EF62DA80B2
S315010001F0002208499A80CA68074B02F4E062134359
S31501000200BFF34F8FCB60BFF34F8F00BFFDE7704742
S315010002100000002000ED00E00400FA0500BFFDE744
S315010002200B4B1B6F03F00703013B042B04D8DFE8DC
S3150100023003F00D04070B0900FEE7064B186870472B
S31501000240054BFBE7054BF9E705487047054870473D
S315010002500040804098AE00209CAE002094AE002065
S3150100026080D54302002D310108B5FFF7D9FF054BB3
S315010002701B6FC3F303330133B0FBF3F0024B18607A
S3150100028008BD00BF0040804090AE0020012100F073
S3150100029003B8002100F000B8D8B1036813F4E07F79
S315010002A003F03F00C3F382120CD0012A0CD0032ABB
S315010002B00FD1094B51B103F58053012282401A60D7
S315010002C000207047054BF5E7054BF3E703F50053AF
S315010002D0F3E70E20704700BFB4428040644080407F
S315010002E068408040F8B5164F05463B78834218D0E2
S315010002F0144B1A6840F201239A4212D9A0B10B2875
S3150100030019D1114C6379C3B900F06CF9214606463F
S315010003100E4800F0ADF80446304600F05EF90CB91F
S315010003203D7000242046F8BD00F05CF906460748FA
S3150100033000F082F8EFE72124F4E70E24F2E700BF8C
S31501000340F4AE002014A50020F5AE002018A500206B
S31501000350B0F5802F22D010D8B0F5003F20D007D8B5
S3150100036018B3B0F5803F08BF482018BF0120704779
S31501000370B0F5403F08BF2C20F7E7B0F5302F11D07C
S3150100038007D8B0F5E02F0FD0B0F5202F08BF102009
S31501000390EBE7B0F57F0F08BF0620E6E74B20704775
S315010003A02A207047112070472120704708B5C8B12F
S315010003B04FF480620C4B9A66BFF34F8F00F0DBF867
S315010003C04FF085435A6CD202FCD54FF48062586DCA
S315010003D01B68064B10F470209A6604D0BDE80840ED
S315010003E0FFF7B6BF212008BD005080400060804065
S315010003F008B528B12822002100F004F9002008BD23
S315010004002120FCE738B51546044688B182B10023A0
S31501000410084A8360C0E90023036200F0A3F820467E
S31501000420294600F09FF82046BDE83840FFF7BEBFD9
S31501000430212038BD000062FF13B501A9044600F072
S315010004406BF880B940F20123019A9A420DD96FF4F3
S315010004508072A3F56B031344C4E90030A0602062E7
S315010004602046FFF7A3FF02B010BD0F20FBE70000F7
S315010004702DE9F74391F800800446A8F10603052B00
S3150100048042D8B1F80150B5F5006F3DD2CF78052FAE
S315010004903AD80E79032E37D891F8059019F0FD0F49
S315010004A032D101A900F038F8E8B940F20122019BE6
S315010004B093421BD9164B4946C4E90030A06020621D
S315010004C0204600F04FF8204645EA084100F04AF878
S315010004D03946204600F046F83146204600F042F8FB
S315010004E02046FFF763FF03B0BDE8F083B3F5007F55
S315010004F00CD3084B4946C4E90030A060206220466F
S3150100050000F030F82946E8E72120ECE70F20EAE77A
S31501000510000215FF000015FF10B50C46D0B1C9B198
S3150100052000F057F80C4B0D495A6E4FF48033D20345
S315010005304B6601F5DE21D1F80C1658BF084A216039
S3150100054058BF536600F040F80020236823F07F432C
S31501000550236010BD2120FCE7004080400050804010
S3150100056000608040036A042B9FBF00EB83020133C6
S31501000570D16003627047036A052B16D84FF0854296
S31501000580116CC902FCD5002105339B00136511606E
S315010005900168143B11604168116050F8081F116031
S315010005A04FF085420344984200D1704750F8041F2A
S315010005B01160F8E7836813B9816070475B685A6810
S315010005C0012AFBD15960704710B962B6BFF36F8F2C
S315010005D07047EFF3108072B6704780F31188BFF34E
S315010005E06F8F7047EFF31180302383F311887047C3
S315010005F04FF082439A6A12F0340F1CBF34221A63F9
S315010006007047000002440346934200D1704703F845
S31501000610011BF9E70348044B834202D0034B03B1A4
S315010006201847704704AF002004AF00200000000007
S31501000630064B0749C91A891048BF0131491003D031
S31501000640044B0BB101481847704700BF04AF0020A7
S3150100065004AF00200000000010B5064C237843B912
S31501000660FFF7D8FF044B13B10448AFF30080012311
S31501000670237010BD84A6002000000000F061000177
S3150100068008B5054B1BB105490548AFF30080BDE828
S315010006900840FFF7CDBF00BF0000000070490020F1
S315010006A0F06100014CF23C32014B5A80704700BFA9
S315010006B0000000204AF6C032014B5A80704700BF45
S315010006C0000000204FF20F02014B5A80704700BF15
S315010006D0000000204AF6C030044B5B8823F00F036C
S315010006E09BB21B1A58425841704700BF00000020B8
S315010006F0044A08B51080FFF7EDFF10B94FF20F035A
S31501000700538008BD0000002008B5FFF7E3FF18B1CC
S31501000710024B588800F00F0008BD00BF0000002002
S3150100072008B5FFF7D7FF48B1054A538803F00F0113
S315010007300F2914BF013323F00F03538008BD00BFF7
S31501000740000000204FF20F01084B5A888A4201D15E
S31501000750188870473AB91B8840F20220012B18BF4E
S315010007604FF4007070474FF400707047000000208E
S315010007702DE9FF41E846044640461E4603F0F6FCD5
S31501000780054660BB32464146204603F0C2FC05469B
S3150100079028BB039AB2F1804F25D240F6FF73164962
S315010007A0B2F5800F28BF0B469F1827EA0307616938
S315010007B0974238BF174611B1A36ABB4215D03046DE
S315010007C07368984700233946636130463368984712
S315010007D0606150B93146204603F092FC0225284655
S315010007E004B0BDE8F081054BDEE798E80F00A7628B
S315010007F084E80F00F3E700BFFFFF0F00FFFF3F0094
S315010008007FB56FF0807200F17F419142034619D2A4
S315010008106D460D4A02F110062C46106851680832E1
S3150100082003C4B2422546F7D15A1E04A90F3311F863
S31501000830014D12F8010F844204D19A42F7D10120E9
S3150100084004B070BD0020FBE7D85C00014FF0807258
S3150100085070B5936A04469869A8B010F480703DD0CB
S315010008600CB900203AE040F204630293556B284626
S31501000870FFF7C6FF0028F4D0194B9D42F1D8AB6BA8
S315010008805A6C636C9A42ECD82822002103A800F422
S3150100089065F003A8FFF758DF20230DAE224603219A
S315010008A001930096482303A802F068F9029003A871
S315010008B004F08BFF029B002BD3D1AB6B304603F1C7
S315010008C024020092043304F1680204F1480100F0A5
S315010008D0EFFF02900298B0FA80F0400928B070BD8F
S315010008E0B07F000130B54FF0FF328BB005460C46A4
S315010008F000F0A0FF0D4B984215D16846043CFFF766
S3150100090023DF22462946684602F05EFA58B940F2CC
S315010009100220FFF7EDFE6846FFF716DF224629465D
S31501000920684602F06DFA00200BB030BDE320BBDE55
S3150100093013B503F039FEFFF7CDFE08B9FFF7B2FE96
S3150100094004F044FE044658B9FFF7C4FE08B1FFF7A8
S31501000950B9FE40F2012002F0E3FB4FF4017018E00A
S31501000960FFF7B8FE08B9FFF7A5FEFFF7CDFE012890
S3150100097002D9FFF797FEFEE7FFF7D2FE094B019377
S31501000980019B002B0ADC40F205439C42E5D140F273
S31501000990032002F0C5FB002002B010BD019B013B04
S315010009A0EDE700BF00350C004BF6EF610020044A6D
S315010009B0D3889BB28B4204BFD0800120704700BF11
S315010009C00000002008B50A4BD3F894305B0601D429
S315010009D0002008BDFFF7B6FEA0F202239BB2072B4B
S315010009E0F6D8C920D84010F00100F1D0F1E700BFD8
S315010009F0008000A3404B0022194610B53F488EB037
S31501000A0001326A2A41F8040BFAD13D4A116852684B
S31501000A1019605A603B4ADA603B4A5A61BFF35F8FFD
S31501000A203A4A9360BFF34F8FBFF36F8F536A43F414
S31501000A300033536201238DF802308DF8033003F041
S31501000A40C1FD20B100238DF802308DF8033000245A
S31501000A502822214604A8CDE901440394FFF77EDF4D
S31501000A6004A8FFF771DE012301A91A4604A801F0C3
S31501000A70BBFC9DF802307BB39DF80E3063B34DF697
S31501000A80AD63234C234AA380234B1968013126D039
S31501000A9004339342F9D19DF8033073B11E4803F034
S31501000AA0FEFC8DF802009DF8023003F0FF0223B927
S31501000AB04FF40270A280FFF71BFE0023A3809DF86E
S31501000AC00230B3B1FFF706FE08B1FFF7FBFD12488E
S31501000AD00E4B986003F06CFD8DF80240EFE74FF482
S31501000AE00270FFF705FE00238DF802308DF8033002
S31501000AF0D1E70EB010BD00BF0002002075058000D1
S31501000B0000000001010580003505800000ED00E0D0
S31501000B100000002040800001008000012DE9F0471F
S31501000B20544C8146D4F800580E46ADF6080D55B31F
S31501000B30C5F500678F4228BF0F4601463A46601940
S31501000B4005F095F8D4F800283A44B2F5006FC4F8D8
S31501000B50002817D1D4F80818D4F80C5891F8BE37E4
S31501000B60D1F87007002B53D1ED68002D44D1D4F88C
S31501000B700828D2F8703703F50063C2F870370023EE
S31501000B80C4F800383D46771B27F4FF6727F00707AF
S31501000B905FB34FF40062002102A8FFF7DFDEB7F56D
S31501000BA0006FB84628BF4FF4006809EB05014246BD
S31501000BB002A805F05CF8D4F80828D4F80C1892F8C5
S31501000BC0BE37D2F87007002B37D1D1F80CA0BAF195
S31501000BD0000F27D1D4F80828B7EB0807D2F87037E9
S31501000BE045444344C2F87037D9D1B54232D30020C7
S31501000BF00DF6080DBDE8F08700912146A847D4F807
S31501000C000838D3F80C38002BB1D041F20100EFE7D8
S31501000C106D68002DABD0D1F8A8C50091A0EB0C00F2
S31501000C202146EBE70092424602A9D047D4F808389C
S31501000C30D3F80C38002BCDD0E7E7D1F804A0BAF1F0
S31501000C40000FC7D0D2F8A8C502A90092A0EB0C00EC
S31501000C504246EAE74FF400620021761B0548FFF79A
S31501000C607DDE3246034809EB050105F000F8C4F8BC
S31501000C700068BCE7884900202DE9F047324F054658
S31501000C80D7F800480E46844290468EB059D2D7F81E
S31501000C900838D3F8702793F8BE3704EB020A041B11
S31501000CA0444528BF4446AAEB00091BB922464946DA
S31501000CB0304634E00021282204A8CDE90111039130
S31501000CC0FFF74CDE04A8FFF73FDD012301A91A4611
S31501000CD004A801F089FB4FF080739B6A09EB040EAF
S31501000CE01B69D7F8081823F080539E45DED303F11C
S31501000CF0400CCC45DAD999454A4638BF1A46C3F560
S31501000D00F763A5EB0A0A07330AEB02001344E6452B
S31501000D1094BFC2EB0E02C2EB0C021944304404F03C
S31501000D20A6FF2D1B444508D2D7F80018A8EB0402EC
S31501000D30491B3944301904F09AFF00200EB0BDE872
S31501000D40F0870024EEE700BF884900200A4B10B562
S31501000D504FF40262044600211846FFF7FFDD012227
S31501000D60C0F8084880F80428044900F50160BDE888
S31501000D70104003F0A3BC00BF88490020790C000194
S31501000D80586808B9D86838B10448C0F80C38044B1B
S31501000D9000F5016003F0A0BC704700BF8849002040
S31501000DA01D0B00012DE9F341214C8046D4F80008C2
S31501000DB00F46A8B100F11F0525F01F052A1AA84202
S31501000DC088BF0022FF212044FFF7C8DDD4F8086858
S31501000DD096F8BE37F3B9FF6857B90023C4F800384F
S31501000DE094F81A3841F202301E2B08BF00200EE09B
S31501000DF02A462146CDF80080D6F87007B847D4F8C0
S31501000E000838D3F80C38002BE7D041F2010002B0C4
S31501000E10BDE8F0817F68002FDFD0D6F870C7D6F81D
S31501000E20A8052A4621460096ACEB0000E6E700BF7E
S31501000E30884900200A4B186830B9B1F5205F0DD8F2
S31501000E40012208481A607047012806D1B1F5005FF2
S31501000E5003D8022204481A6070470020704700BF79
S31501000E60A8510020247C0020245C002031B1044AD2
S31501000E701368002BC4BF03F1FF331360704700BF33
S31501000E80A851002002232DE9F04F04460F468BB0EE
S31501000E90DFF81491DFF814A105928DF81F309DF843
S31501000EA01F30022B08D0059A002A75D0012B41F27A
S31501000EB0023008BF00205AE0D9F80010DFF8E480BC
S31501000EC0C1F500630893DAF80030344809930DF14F
S31501000ED01F0302930023019309AB009308AA304B29
S31501000EE0414403F0BBF89DF81F3000284ED1002B7A
S31501000EF04FD0D9F80050089BEB1823F4FF6626F073
S31501000F000706049376B194F8BE37D4F870078BBB05
S31501000F10D7F80CB0BBF1000F1FD1D4F870373344AA
S31501000F20C4F87037049BC3F30A052DB12A461D4840
S31501000F3008EB060104F0A8FEDAF800300999C9F8B1
S31501000F4000508B42A3EB010504D915482A460144FA
S31501000F5004F09AFECAF80050A1E7324641460094D1
S31501000F60D847D4F80C38002BD7D041F201000BB08A
S31501000F70BDE8F08FD7F804B0BBF1000FCDD00094D7
S31501000F80D4F8A85532464146401BE9E741F2033001
S31501000F90EDE741F20230EAE70598E8E7AC510020B7
S31501000FA0245A0020205200201C520020205A0020E2
S31501000FB008B5702200210648FFF7D0DC0122002087
S31501000FC0044B1A70044B1860044B186008BD00BF2F
S31501000FD0AC51002085A600201C520020205A00207A
S31501000FE02DE9F04F5C6885B015461F46CDE9010134
S31501000FF0002C37D00024DFF8B080002D35D0029BBD
S31501001000402D03EB040B244BAA461E7828BF4FF054
S31501001010400A6EB10023204A594613701F48052223
S315010010201F4BFFF7A5FBA0BB1C4802F004FF0D26D2
S31501001030D8F80030AAEB0609C3F500734B4518D35F
S31501001040D8F8003017484A4618440BEB06010393BB
S3150100105004F00DFE039BA5EB0A054B44C8F80030CE
S315010010605444CAE7DB68002BC5D1002005B0BDE8B2
S31501001070F08F002239460198FFF704FF0028F5D1C9
S31501001080D8F80030C3F500734B45D9D241F204308C
S31501001090ECE741F20530E9E785A60020AC510020D6
S315010010A088AE0020245A0020205A00204B68F7B54C
S315010010B004460D460BB9CB6863B101222946204689
S315010010C0FFF7E0FE38BB1B4B186828B91A491B48C5
S315010010D003F040F800201EE000F11F0626F01F066F
S315010010E0174F321AB04288BF0022FF213844FFF75A
S315010010F035DC94F8BE3783B9ED68002DE6D032466B
S3150100110039460094D4F87007A847D4F80C38002B58
S31501001110DCD041F2010003B0F0BD6D68002DD5D0E1
S31501001120D4F8A80500943246D4F870673946301AC7
S31501001130EAE700BF1C52002088AE0020AC51002017
S3150100114020520020012807D0022807D101231422AA
S31501001150034802FB030070470023F8E700207047AD
S31501001160845D00011FB50268214B04469A4206D0F0
S3150100117000F29C71D0F8A80503F068FC10B10020BC
S3150100118004B010BD94F88937013B012B03D994F8BB
S315010011908837012BF3D1D4F8040802A900F03EFCEC
S315010011A00028EDD1029AD4F8941702F108030B44F2
S315010011B00093009B039903F6FF7323F47F6323F0E7
S315010011C00F030193019B0A44D21AB2F5004F0CD3C7
S315010011D0019B01984FF40041C4F80038C4F8700728
S315010011E004F0B2FA0028CAD0CAE74FF48160C7E713
S315010011F03A02023A70B5D0F884270446D2E902329F
S3150100120013438CB060D0D0F8303702A89847D4F891
S31501001210A80504F29C7103F019FC8DF803009DF8F2
S315010012200330002B50D09DF80330072B49D80122FB
S315010012309DF80330D4F884170133896802FA03F361
S315010012400B423ED04FF48001234B5966022103F530
S315010012500033596003F5805320495A608D6815F4AF
S315010012608035FBD101225A6202225A604FF4800274
S315010012701B4B01A85A664FF0FF33019303F075F932
S3150100128068B1184B019A9DF803109A420BD8D4F80D
S31501001290F43602A8984790B11A2384F8603741F2D0
S315010012A001000CB070BDD4F810382A4603F5FF438F
S315010012B07F33D4F8F066DB0B02A8B047EBE704F006
S315010012C080FA0023C4F87037002341F2030084F842
S315010012D06037C4F86C37E4E7005080400040824034
S315010012E000608040FF01030030B4074B05681C68AD
S315010012F00CB930BC7047AC4204D15C6814B12346CA
S3150100130030BC18470C33F2E7AC5D00012DE9F84318
S3150100131004461F46404B00F5DC65164688460FCB52
S3150100132085E80F003D4B04F5DE650FCB85E80F0020
S3150100133000253B4A04F5E06307CA83E80700394AFA
S3150100134004F20C7307CA83E80700374A04F5E3631E
S3150100135092E80300354A83E8030092E8030004F5A6
S31501001360E46383E80300324B04F5E769C4F82837E0
S31501001370304B4846C4F83037C4F82C57C4F83457B4
S31501001380FFF7E2D99DF82030494603F0200384F89F
S31501001390783740F204633046C4F80C38C4E905676F
S315010013A0D4F8E03684F86057C4F86457C4F868572F
S315010013B0C4F86C57C4F8705784F87A5784F879578B
S315010013C0C4F87457C4F89057C4F89457C4F898579A
S315010013D0A4F8BC57C4F80858C4F80458C4F800580F
S315010013E0C4F88057C4F88457A4F88857C4F8DC6653
S315010013F0C4F88C77C4F87C8798474946D4F8E03618
S31501001400A06998474022FF2104F2BF70FFF7A6DAD0
S315010014102846BDE8F88300BF7C60000160600001DA
S3150100142070600001546000014C60000144600001DD
S31501001430B118000149078000F0B585B0CDE9012357
S31501001440002304460C2541F20306C0F884170393D2
S31501001450DDE902329A4225D2134B00211A460FE0EA
S3150100146090F900C094F960070C33844507D105FB58
S315010014700122137A73B9204601A9B8470EE001315A
S315010014805F681846002FEBD11A2341F2080084F851
S31501001490603705E020460A9A01A9B847B042D7D07D
S315010014A005B0F0BD0020FBE7005F000137B5D0F8BD
S315010014B06C570B46C5F108050822014600950446FE
S315010014C003F057FB9A68854202449A604FF0000088
S315010014D012D8D4E900232449C4F86437C4F868074C
S315010014E0C4F86C0751F8303001EBC00533B91A2343
S315010014F041F2010084F8603703B030BD934222D136
S315010015002B79D4F89007D4F89857D4F8841784F82F
S315010015106037A842D1E9023117D10B4306D0B0B1E9
S31501001520124B9A4213D1162384F8603720460822BB
S315010015302146FFF7D9FED4F8903741F2030008336C
S31501001540C4F89037D8E70130CCE70B43EED0084B0F
S315010015509A42EBD11323204684F86037FFF702FE47
S315010015600028E3D0C8E700BF785E00013A0101BA5E
S315010015703A02023A2DE9F74F044600200E46174675
S315010015808146DFF8BC81D6E901329A4205D2D4F808
S315010015906827D4F864379A4222D341F2030398426A
S315010015A040F0CB80D4F86437D4F86827D4F8901784
S315010015B09A4202BF002384F86037C4F86837D4F82A
S315010015C0943703F10802914240F0B780002B00F0F6
S315010015D0B4803146204603B0BDE8F04F03F0D8BDD4
S315010015E0D4F86C579B1AB3F5006F94BFC5EB03058E
S315010015F0C5F500654FF40062334641462046009525
S3150100160003F0B7FA8246B3683168024619442046A8
S31501001610FFF76AFEB36855455344B360D4F8903773
S315010016204FF000005344C4F89037ACD8D4F868376B
S31501001630D4F86C57D4F8A8052B44C4F8683704F2DB
S315010016409C7103F003FA072884F8BE070DD801221E
S31501001650D4F8843701309B68C0B282401A4209D15E
S3150100166041F20300C4F86C978DE7FF28F8D141F2E7
S31501001670010088E794F88837012B07D12B464246AB
S315010016802F49D4F87C07D4F82457A84794F889073A
S31501001690D4F86CA7431E012B2CD894F8785715F073
S315010016A0200514D0FFF74EFD05460028D8D094F842
S315010016B078379A060BD5D0F808B0BBF1000F06D0E3
S315010016C03B46524620461E49D8470028C8D1D4F881
S315010016D06827D4F864379A42C2D194F878379B06C2
S315010016E0BED5002DBCD0EB68002BB9D039462046BB
S315010016F09847B5E794F8BE37D4F87007B3B9FD68D3
S315010017003DB9D4F87037D4F86C271344C4F8703750
S31501001710A6E794F88827002AF3D052460849009490
S31501001720A847D4F80C38002BEBD0A0E77D68002D34
S31501001730E7D0524641460094F2E703B0BDE8F08F88
S3150100174086A600202DE9F34704460D4617464FF0BD
S315010017500009DFF8DC80D5E901108842D4F8682752
S31501001760D4F8643701D29A4217D39A4202BF0023B2
S3150100177084F86037C4F86837D4F89437D4F89017EA
S3150100178003F1080291424FD1002B4DD02946204644
S3150100179002B0BDE8F04703F0FBBC9B1AD4F86C27F6
S315010017A04146B3F5006F94BFC2EB030AC2F5006A66
S315010017B020462B464FF40062CDF800A003F0D9F97C
S315010017C00646AB682968024619442046FFF78CFD98
S315010017D0AB68B2453344AB60D4F890373344C4F8B0
S315010017E090371DD8D4F884379B68DB0709D5FE6886
S315010017F03EB1009400234146D4F86C27D4F8700713
S31501001800B047D4F86C27D4F86837C4F86C971344FA
S31501001810C4F86837D4F870371344C4F870379AE7B8
S31501001820002002B0BDE8F08741F20300F9E700BFEE
S3150100183086A6002030B50824094B00255C660124E4
S3150100184003F5EE235C6001449D601A61DC60884209
S3150100185001D1586A30BD10F8012B1A62F7E700BFB3
S315010018600050804030B54FF48065104C4FF0807CBD
S31501001870A566049C0025E40844600324C0E902C46B
S31501001880FA2405600461056280F834101168C0F815
S3150100189035105168C0F8391091681A0C5BBAC0F856
S315010018A03D1080F84120A0F8423030BD0050804004
S315010018B02DE9F043B7B0884616461D460746DDF8C2
S315010018C0F890002800F08C80002900F08980002A19
S315010018D000F0868000243C22214617A81694FFF7C3
S315010018E03DD83C22214627A82694FFF737D8202247
S315010018F0214604A8FFF732D83B4BBDB94FF410502F
S3150100190004930323CDE90603FC230893B9F1000FE1
S3150100191022D04B461EAC09F12005224618685968AB
S31501001920083303C2AB421446F7D115E04FF4105108
S3150100193016AC05F1200204930691B9F1000F43D1CB
S315010019400321FC23CDE90713234628686968083576
S3150100195003C395421C46F7D126AD43462C4608F1F2
S31501001960200C224618685968083303C26345144699
S31501001970F7D132462EAC203623461068516808321C
S3150100198003C3B2421C46F7D1282200210CA8FEF758
S31501001990E5DF0CA8FEF7D8DE4023CDE9025320236C
S315010019A00022CDE9007304A901230CA801F050F926
S315010019B004460CA803F009FF002C40F2046008BF9E
S315010019C0002037B0BDE8F0834023089409932346ED
S315010019D028686968083503C395421C46F7D198E71C
S315010019E040F20160EDE700BF200000804FF4806205
S315010019F0024B9A66032203F0EDBE00BF0050804001
S31501001A0048B14FF440320023C0E90023024B1A7853
S31501001A105B680272C3607047D060000131B10A4B46
S31501001A205A68824205D80023C1E9003340F20140D9
S31501001A307047013053F8302003EBC0035B68002088
S31501001A400A604B60704700BFD060000170B40C465D
S31501001A5011461A460B4B5D6885420CD9013003EBE2
S31501001A60C0067668A518B54209D853F83000204457
S31501001A7070BC03F03CBE40F2014070BC704740F2BE
S31501001A800240FAE7D060000170B50D46002186B02C
S31501001A900DF1070302931D4B0446164611602846B5
S31501001AA01C22CDE903338DF807100593FEF756DFA7
S31501001AB09DF8070040B9D4F880392BB9D4F87C29B0
S31501001AC0D4F878399A4217D323689A0744BF6269D2
S31501001AD032605B0709D504F1180304F1340253F8A7
S31501001AE0041B934245F8041BF9D150B9D4E90032DD
S31501001AF0134308D006B070BD204602A903F06FFD5E
S31501001B00D6E70020F6E740F20640F3E7D755000195
S31501001B101FB54FF080739B6A14469B688B4202D3B4
S31501001B20002004B010BD40F68812214603F09EFD48
S31501001B300028F5D102220023C4E90223044BCDE992
S31501001B400000029069462046039303F06EFDE8E724
S31501001B505342000100B5ADF69C1D40F6881204A95A
S31501001B6003F084FD80B900230422CDE90623074B47
S31501001B700090CDE901300390694604A803F055FDB4
S31501001B800DF69C1D5DF804FB0020F9E7B14100014B
S31501001B90064B0748DA1C121AC11E22F003029942AB
S31501001BA088BF0022034904F062B800BF04AF0020D9
S31501001BB088AE0020FC610001064B0748DA1C121AA8
S31501001BC0C11E22F00302994288BF00220021FEF7BE
S31501001BD0C59E00BF88AE0020704900200348044A14
S31501001BE00449121A921003F0DFBD00BFA8010001DB
S31501001BF014060001000500204FF000602DE9884819
S31501001C003449354B354AD3F8943088660221012B85
S31501001C10334B4FF0000099604FF0005143D8002537
S31501001C20002600275FF000085FF000095FF0000A58
S31501001C305FF0000B5FF0000C501A4FF48073B0FB9D
S31501001C40F3F404FB03F40C44A14210D2A1E8E01F13
S31501001C50A1E8E01FA1E8E01FA1E8E01FA1E8E01F5D
S31501001C60A1E8E01FA1E8E01FA1E8E01FECE791422F
S31501001C7002D241F8045BFAE70522194B9A604FF04C
S31501001C800062A3F540539A66164B83F30A8800F067
S31501001C902BF8FFF7A3FFFEF7ADFEFFF779FFFFF77E
S31501001CA08BFFFEF745FE501A4FF02003B0FBF3F40D
S31501001CB004FB03F40C44A14204D291E8E01FA1E81D
S31501001CC0E01FF8E7914203D20D6841F8045BF9E79A
S31501001CD0D2E700BF00508040008000A3000006202C
S31501001CE00090804070090020044B054A9A60D3F8A1
S31501001CF0882042F47002C3F88820704700ED00E0A6
S31501001D0000000001014B1860704700BF98AE00202B
S31501001D1050B949B9054B1A60054B1B6F03F0070310
S31501001D20052B01D1FEF74C9C704700BF94AE0020F5
S31501001D3000408040BFF34F8F0549064BCA6802F445
S31501001D40E0621343CB60BFF34F8F00BFFDE700BFD7
S31501001D5000ED00E00400FA05F8B504460127124D2E
S31501001D600CB314F001000BD0002024F0010405EBA4
S31501001D70C0021668002EF3D05168C0B2B047EFE733
S31501001D802246013020284FEA520201D0D307F8D566
S31501001D9007FA00F20F2824EA0204E8D9421E05EBED
S31501001DA0C2021038E5E7F8BD24A4002008B500F00A
S31501001DB01DF8054B00F0553020F05020C3F82004E3
S31501001DC0BDE80840FFF7C8BF00E0834008B500F052
S31501001DD00DF8054B00F0AA3020F0A020C3F820042E
S31501001DE0BDE80840FFF7B8BF00E08340034BD3F8D6
S31501001DF02424D3F820041040704700BF00C083405C
S31501001E00024A536A23F00103536270470040874038
S31501001E10014BD3F8100170470080E00F002310B585
S31501001E200B4C8CB0A04214BF30243C2402A8019371
S31501001E30FEF78ADC10B100200CB010BD224611213C
S31501001E4001AB02A801F034F80028F4D10198F3E7B8
S31501001E50005A620208B5054B1B6FDB0704D5012248
S31501001E60034B1A67AFF3008008BD00BF0040104066
S31501001E7000601040924A70B5136F924823F0070331
S31501001E8043F001031367FEF7ADDB8F48FEF75CDC19
S31501001E908E498D48FEF7ECDC0020FEF7CFDBFFF71D
S31501001EA0B7FF04468A48FEF79DDB8A48FEF79ADBB0
S31501001EB0894B88485B68FEF798DB884BDA6812F035
S31501001EC0060FFBD19C608648FFF71CFF8548FEF78D
S31501001ED089DB48F2A6124FF0814302215A62824AF7
S31501001EE05160012102F5805251609A69D405FCD4F2
S31501001EF05A687E4911407E4A0A435A6001227A4B4A
S31501001F004FF081415A6040F203128B6932EA0303B2
S31501001F10FBD10021022601250846764AFFF7F8FE85
S31501001F20754B76485E605D60FFF778FF044674483E
S31501001F30FEF758DB734B24F4C0049C607248FEF72D
S31501001F4051DB724B72495E6003F580535D608A68AE
S31501001F50D003FCD401225A620222594C5A60236FE3
S31501001F6023F0070343F005032367236F23F4744328
S31501001F7043F480632367FEF723DB664BD3F8FC202B
S31501001F80D20100F18280D4F8803023F0030343F0BC
S31501001F900103C4F88030D4F88030C4F88030484B4F
S31501001FA05D48D3F8202122F0070242F00102C3F86E
S31501001FB02021D3F8282122F0070242F00102C3F8BA
S31501001FC02821D3F8A82222F0070242F00102C3F821
S31501001FD0A822D3F8402122F0030242F00102C3F8FD
S31501001FE04021D3F8602122F0030242F00102C3F836
S31501001FF06021D3F8802122F0030242F00102C3F8E6
S315010020008021D3F8B02222F4E06242F48072C3F850
S31501002010B022D3F8B02222F03F0242F00902C3F8FF
S31501002020B022D3F8402222F0030242F00102C3F8A3
S315010020304022D3F8002222F0070242F00102C3F83F
S315010020400022D3F8702222F0030242F00102C3F803
S315010020507022D3F8202222F0070242F00102C3F8CF
S315010020602022D3F8AC2222F0070242F00102C3F883
S31501002070AC22FEF7B7DAFFF7C3FE4FF0E022136991
S31501002080002043F00403136170BDD3F8FC2022F055
S315010020908072C3F8FC20D4F8802022F0030242F0BB
S315010020A00102C4F88020D4F88020C4F88020BFF350
S315010020B06F8FD3F8FC2042F08072C3F8FC206EE7E4
S315010020C000408040E060000118A5002014A5002012
S315010020D0F4600001F860000100C081400000814009
S315010020E080D54302E860000100108040CBE000FC8F
S315010020F01415BD0280D1F00800208040002D310169
S31501002100F060000100001040EC60000100508240C8
S315010021100040824000ED00E0E46000010346054A0C
S315010021200549106803448B428CBF4FF0FF301360A2
S31501002130704700BFA0AE0020000006202DE9F04345
S3150100214093B08946DDE91A871D460446002858D012
S31501002150002956D0B8F1000F53D0002F51D013F0FB
S315010021600F034ED1284829490FAE002A08BF014660
S31501002170A360C4E9001348463146236203F022FCFA
S3150100218000283BD120460F99FEF798DB29462046C9
S31501002190FEF794DB6946484600F040FD70BB694690
S315010021A0204603F05AFD484603A903F02CFD28BB3F
S315010021B0204603A903F051FDCDF830804FF0010808
S315010021C045F00055CDF8348006AB0E950CAA07CA2A
S315010021D083E807001946204603F03FFD0F9709AB38
S315010021E0CDF84080119596E8070083E80700204660
S315010021F01946FEF78BDB2046FEF784DA13B0BDE8FD
S31501002200F0832120FAE700BF000100040001010468
S315010022102DE9F04F8B4690461F460546A5B000288E
S3150100222000F0DB80002900F0D8803AB1309B002B0A
S3150100223000F0D380319B002B00F0CF802E9B002B2A
S3150100224000F0CB802F9B002B00F0C7803FB13C688C
S315010022500026464505D307B13C60002096E03C4682
S31501002260F6E75CB1309B2F9A9B5D125D01345340BA
S31501002270319A04F00F0493550136EAE7A8EB0609F3
S31501002280B9F10F0F0BD8309B03EB0609319B1E44A6
S31501002290309B03EB080ACA457BD14646D9E7504B2A
S315010022A05846C5E90034AC602C6205A903F08AFBE7
S315010022B000286BD12846059929F00F09FEF7FEDAA9
S315010022C049462846FEF7FADA584606A900F0A6FC62
S315010022D000285BD1284606A903F0BFFC584609A988
S315010022E003F091FC002851D14FF0010A284609A9B3
S315010022F003F0B3FC2E9B0DF1300C1893394BCDF83E
S3150100230064A01A9318AB93E807008CE8070030998C
S315010023100DF13C0E8B191B9349F00053CDF870A0BB
S315010023201BAA1D9307CA8EE8070061462846039338
S3150100233003F093FC28460FA903F08FFC3199039B08
S315010023408A191E92CDF87CA01EAA209312AB07CA49
S3150100235083E807002E99234A2191CDF888A023927C
S315010023600DF1540A24AA12E907008AE80700194662
S315010023702846FEF7CBDA51462846FEF7C7DA284645
S31501002380FEF7C0D94E4400283FF47DAF25B0BDE825
S31501002390F08FBCB92F9B224601932E9B5946009381
S315010023A028461023FFF7CAFE0028EFD12E9B03F122
S315010023B0100212F8013D0133DBB2137013B92E9BE3
S315010023C09A42F6D12F9A19F8013B125D0134534016
S315010023D006F8013B04F00F045DE72120D6E700BFB4
S315010023E003030004100000202DE9F0410C461546B8
S315010023F006468AB0002844D0002942D05A1E072A30
S315010024003FD8072D3DD85F19082F3AD800231F4A18
S315010024108360C0E90023036201230DF11808CDF89A
S315010024200C8004931A4B03AA05936B4607CA83E8EB
S31501002430070030461946FEF769DA3046FEF762D9DB
S3150100244010B92146AF4202D80AB0BDE8F08138F88A
S3150100245015200D6002F44053B3F5405F13D0930489
S315010024604CBF0223C2F300330B72C2F30B03DB032F
S315010024704B60C2F38033D20B4B728A7201350C3139
S31501002480E0E72120E0E70220DEE700BF000053FF7E
S31501002490100000202DE9F043164605468BB0A8B181
S315010024A0A1B15A1E072A11D8072E0FD89A19082A40
S315010024B00CD806AF0020BC460A683418A24205D1E2
S315010024C00C7A012C06D0022C45D02CB121200BB060
S315010024D0BDE8F0834FF48054D1F804803C80C8F302
S315010024E00E0EBEF1000FF1D14A7A91F80A909203CD
S315010024F042EAC9321443C8F3CB38013044EA08042E
S31501002500834227F8024B01F10C01D5D1134ACDF8CC
S315010025100CC0C5E9002E012203FA02F444F000536F
S31501002520049205936B4603AA07CAC5F808E083E837
S315010025300700C5F820E01946284603F08EFB314610
S315010025402846FEF7BBD928462146FEF7B7D92846C5
S31501002550FEF7D8D8BBE74FF40054BDE7000050FFA3
S3150100256010B5044660B10023064A8360C0E9002322
S315010025700362FEF7A3D92046BDE81040FEF7C298D4
S31501002580212010BD000052FF70B516461D460446B7
S31501002590A8B1ABB100230B4A8360C0E900230362F3
S315010025A0FEF78CD931462046FEF788D920462946C2
S315010025B0FEF784D92046BDE87040FEF7A398212591
S315010025C0284670BD000057FF2DE9F04186B08846C8
S315010025D0174606460C9C68B344B35BB314F01F055B
S315010025E028D103930123049344F0005305936B46CA
S315010025F0114A8560C0E9002506AA056212E90700AD
S3150100260083E807001946304603F027FB414630466A
S31501002610FEF754D939463046FEF750D921463046A1
S31501002620FEF74CD93046FEF76DD80446204606B073
S31501002630BDE8F0812124F9E7000056FF73B50E4687
S315010026401546044620B3072922D86AB1002301A9F9
S315010026500193FEF70DD920B940F20133019A9A424E
S3150100266002D80F2002B070BD00230A4A3146204627
S31501002670C4E90023A3602362FEF720D92046294638
S31501002680FEF71CD9204602B0BDE87040FEF73A9825
S315010026902120E7E7000051FF30B51546044687B013
S315010026A0F0B107291CD8DAB100230E4A8360C0E9CC
S315010026B000230362FEF702D90123039504930A4B13
S315010026C006AA05936B4612E9070083E80700204630
S315010026D01946FEF71BD92046FEF714D807B030BDC0
S315010026E02120FBE7000054FF04000020F0B5164648
S315010026F00546A7B0002857D0002955D0002A53D047
S3150100270000230127294C2A4A0891C0E90023099789
S3150100271083600A94036208AA02AB07CA83E807002A
S315010027200B960BAA0C970D9405AC07CA84E8070013
S3150100273019462846FEF7EAD821462846FEF7E6D886
S315010027402846FDF7DFDF044640BB019001A9284674
S31501002750FEF78ED8044608BB40F20223019A9A423C
S315010027601CD8014660220EA8FEF7F8D80823224697
S3150100277028460EA9FFF738FEA0B908220EAB197A32
S315010027800C33022904BF53F8081C00EBD100013AAF
S31501002790F5D13368834204D31B1A3360204627B030
S315010027A0F0BD02200446F9E72124F7E704000020E2
S315010027B0000064FF70B50E461C46054686B040B360
S315010027C023B332B313F0030323D113498360C0E962
S315010027D00013036201230392049344F0005305930B
S315010027E06B4606AA12E9070083E807001946284640
S315010027F003F033FA31462846FEF760D821462846CB
S31501002800FEF75CD82846FDF77DDF0446204606B074
S3150100281070BD2124FAE700BF000063FF2DE9F041F6
S315010028200F46017804460139904692B004295CD8D6
S31501002830DFE801F003474C515600402514262C4988
S315010028400C3400225D433846C7E9012239603A62F9
S315010028502946FEF733D84FF0010C45F00055CDF867
S315010028602480CDF828C00B956D4609AB46F000567D
S3150100287093E8070003AB85E807000C940CAACDF892
S3150100288034C00E9607CA83E807000F9412AACDF842
S3150100289040C006AC119612E9070084E80700194604
S315010028A0384603F0DAF92946384603F0D6F93846B0
S315010028B02146FEF72BD83846FDF724DF12B0BDE8D6
S315010028C0F081402520260B490C34BAE74025202605
S315010028D009490C34B5E78025402608491434B0E788
S315010028E08025402606491434ABE72120E6E700BFE0
S315010028F000020103000301030004010300050103B3
S315010029000006010310B591B188B10023C0E9013376
S31501002910084B00F10C0203F1200153F8044B8B42E2
S3150100292042F8044BF9D101230370002010BD212088
S31501002930FCE700BFC561000110B591B188B1002364
S31501002940C0E90133084B00F10C0203F1200153F8F1
S31501002950044B8B4242F8044BF9D102230370002049
S3150100296010BD2120FCE700BFFC60000110B591B14C
S3150100297088B10023C0E90133084B00F10C0203F1D1
S31501002980200153F8044B8B4242F8044BF9D103233F
S315010029900370002010BD2120FCE700BF1D6100016E
S315010029A010B5A1B198B10023C0E90133C0E90333E1
S315010029B0084B00F1140203F1400153F8044B8B421A
S315010029C042F8044BF9D104230370002010BD2120E5
S315010029D0FCE700BF3E61000110B5A1B198B100232B
S315010029E0C0E90133C0E90333084B00F1140203F1D6
S315010029F0400153F8044B8B4242F8044BF9D10523AD
S31501002A000370002010BD2120FCE700BF7F6100019B
S31501002A102DE9F04F0D46174693B0002800F0A0802F
S31501002A20002900F09D80002A00F09A800278013A80
S31501002A30042A00F29580DFE802F0030E717B88001C
S31501002A404FF0140B484A00F10C0A00F1040900F199
S31501002A502C04D8460AE04FF0200B4FF01C08434ADD
S31501002A6000F10C0A00F1040900F12C0440219845FB
S31501002A7076D809F1040309EBD10653F8040B0028B3
S31501002A8070D1B342F9D1D9F80030013901EA030610
S31501002A90C5E900203146A86028622846FDF70EDF09
S31501002AA02846D9F80010FDF709DF4FF0010EEC4674
S31501002AB04BF00053CDF824A046F00056CDF828E09F
S31501002AC00B9309AB93E807000CAB8CE807000C9459
S31501002AD0CDF834E00E9693E8070003AE48F00053B4
S31501002AE086E8070006AC0F97CDF840E0119312ABCC
S31501002AF013E9070084E807006146284603F0ADF8AC
S31501002B003146284603F0A9F828462146FDF7FEDEA0
S31501002B102846FDF7F7DD13B0BDE8F08F4FF0200B27
S31501002B20134A00F10C0A00F1040900F12C0490E7A4
S31501002B304FF0400B4FF030080E4A00F1140A00F135
S31501002B40040900F15404802191E74FF0400B0A4A31
S31501002B50D84600F1140A00F1040900F15404F2E721
S31501002B602120D8E70F20D6E7000203030003030361
S31501002B700004030300050303000603032DE9F043E4
S31501002B808DB00D4691461E460446149F002841D03D
S31501002B90002F3FD00AB9002B3CD16B1EDBB2042BB0
S31501002BA038D81D4A12F80380159B984532D8002360
S31501002BB0280200F1407000F5807031460125C4E914
S31501002BC00133206023622046FDF778DE6B4646F02E
S31501002BD00056CDF8189006AA0795089607CA83E805
S31501002BE0070048F0005209970A950B9203AD0CAA0B
S31501002BF012E9070085E807001946204603F02DF87B
S31501002C0020462946FDF782DE2046FDF77BDD0DB025
S31501002C10BDE8F0832120FAE7C061000190B189B1D6
S31501002C2001234B60C368013B012B08D88269064B1F
S31501002C301AB10A6000208B607047044AF9E74FF029
S31501002C400053F7E72120704708000020E8610001E2
S31501002C502DE9F04393B00D46DDE91A960446DDF8F9
S31501002C60708000287CD000297AD0B9F1000F01D1FB
S31501002C70002E75D1B8F1000F72D0A96889046FD5FD
S31501002C80296801F07041B1F1404F5FD0002B5FD14F
S31501002C90531E042B64D8334B03EB022200230FAFE0
S31501002CA039462846C4E901332260236202F08AFECE
S31501002CB0002848D120460F99FDF700DE314620460F
S31501002CC0FDF7FCDD69462846FFF7A8FF00283AD143
S31501002CD06946204602F0C1FF284603A902F093FF88
S31501002CE088BB204603A902F0B8FF4FF0010C46F05D
S31501002CF00056CDF830900CABCDF834C00E9693E863
S31501002D0007001D9B0DF1180943F0005389E80700E0
S31501002D10CDF83C80CDF840C011932B6809AE03F085
S31501002D207043B3F1404F97E8070086E8070011D1D9
S31501002D303146204602F091FF4946204602F08DFFBA
S31501002D402046FDF7DFDC13B0BDE8F083064AA5E7B0
S31501002D50064AA3E74946204602F07FFF3146ECE7E3
S31501002D602120F0E70001010600000306000001062C
S31501002D7010B5044668B161B10023074A8360C0E912
S31501002D8000230362FDF79ADD2046BDE81040FDF7FA
S31501002D90B99C212010BD00BF0000024310B50446B6
S31501002DA068B161B10023074A8360C0E90023036269
S31501002DB0FDF784DD2046BDE81040FDF7A39C2120E8
S31501002DC010BD00BF0000034338B51546044690B157
S31501002DD089B182B10023094A8360C0E900230362F5
S31501002DE0FDF76CDD20462946FDF768DD2046BDE886
S31501002DF03840FDF7879C212038BD00BF01000543FF
S31501002E0038B51546044690B189B182B10023094A05
S31501002E108360C0E900230362FDF750DD20462946A1
S31501002E20FDF74CDD2046BDE83840FDF76B9C2120BF
S31501002E3038BD00BF010006431FB50446A0B199B1D4
S31501002E4000234FF088428360C0E900230362012317
S31501002E5001910293054B01A90393FDF757DD204626
S31501002E60FDF750DC04B010BD2120FBE70400002073
S31501002E7010B586B00446019198B100230A4A8360D1
S31501002E80C0E90023036201AB039301230493074BBB
S31501002E9003A9059302F0E1FE2046FDF733DC06B0F7
S31501002EA010BD2120FBE700BF000001440400002003
S31501002EB07FB515460446D8B1D3B112F0030219D134
S31501002EC0019301230C4E029346EA01210B4BC0E903
S31501002ED000128260026201A90393FDF717DD204605
S31501002EE02946FDF7EBDC2046FDF70CDC04B070BD8E
S31501002EF02220FBE72120F9E70200304304000020ED
S31501002F00024B0146186800F02DB800BFA4AE0020A0
S31501002F10024B0146186800F0B9B800BFA4AE002004
S31501002F2070B50F4E0C460546316811B900F09EF892
S31501002F3030602146284600F099F8431C03D14FF032
S31501002F40FF34204670BDC41C24F00304A042F8D00F
S31501002F50211A284600F08AF80130F2D1EFE700BFC6
S31501002F6040A500202DE9F041CD1C064625F00305BC
S31501002F7008350C2D38BF0C25002D01DBA94204D9DB
S31501002F800C2333600020BDE8F081314F00F062F878
S31501002F903B681C4644BB29463046FFF7C1FF431C2C
S31501002FA0044650D13C682146002941D1002C44D029
S31501002FB02368304604EB030800F058F880453CD1FD
S31501002FC0216830466D1A2946FFF7AAFF013034D031
S31501002FD023682B4423603B68002B36D05A68A242F3
S31501002FE029D100225A600EE02268521B1DD40B2AF9
S31501002FF016D96119A342256018BF5960636808BFD5
S31501003000396062514B60304600F02AF804F10B003A
S31501003010231D20F00700C21AB5D01B1AA350B2E730
S31501003020A3426268DED13A60EDE723466468B1E700
S315010030300C464968B8E71346CEE70C2330463360A1
S3150100304000F00EF89EE70560DDE75B60FFDE00BF7E
S3150100305044A50020014802F031BE00BF86AE002023
S31501003060014802F02CBE00BF86AE002038B5002311
S31501003070054D044608462B60FFF750F8431C02D164
S315010030802B6803B1236038BD80A6002038B50546FC
S31501003090002941D051F8043C0C1F002BB8BFE4189D
S315010030A0FFF7D8FF1D4A136833B9636014602846D9
S315010030B0BDE83840FFF7D4BFA34208D920682118DC
S315010030C08B4201BF19685B6809182160EDE71A4652
S315010030D05B680BB1A342FAD911685018A0420BD113
S315010030E020680144501811608342E0D118685B687A
S315010030F0084453601060DAE702D90C232B60D6E747
S31501003100206821188B4202BF19685B680918636041
S3150100311008BF21605460CAE738BD00BF44A500203E
S3150100312008B5FDF7E5FABDE8084002F04CBB826C34
S31501003130F0B5531EB3F5887F18D8D0E9093CD0E91C
S315010031400B47C91A914228BF11464569866B2FB9AB
S31501003150C768A7EB040E8E4598BF07630C44521A45
S31501003160C462826419448B4201D14362F0BDB34209
S3150100317034BF644600249A1B2A44125DEA54013383
S31501003180F1E72DE9F04F95B008910D92036B416A75
S315010031900793C36A0193079B002B40F0AA80019A0B
S315010031A0C3689B1A089A521A9A4240F2A2800B44AB
S315010031B04FF0FF37D0E90DBA8568099307FA05F58F
S315010031C0ED430E954568C36BAF40FD430F95002552
S315010031D00293036C04690393436C0B950493036890
S315010031E004F668250C93119504F2646543691295FA
S315010031F00C9D0593C5F10805836A026A139506932A
S31501003200D0E906360E9D019FB6F1807F05EA0708D3
S3150100321008EB0B1C3CBF13F8015B360234F81C703B
S3150100322038BF45EA0222F50A7D4395424FEA0B1E55
S3150100323040F2C380C7F5006607EB561624F81C60FA
S31501003240019F079E04F66C6C3E4312D03E460F9FCB
S3150100325037400C9E07FA06FE00294CD1069E013E18
S31501003260059FBE5D139F3E414FF4C067764407FB41
S3150100327006CC019EBBF1060F06F10106019647D861
S315010032800126BBF1030F94BFABEB0B0BABF1030BA9
S315010032900096009EB5F1807F38BF13F801EB4FEA27
S315010032A0460638BF2D023CF8067038BF4EEA0222A8
S315010032B04FEAD52E07FB0EFE964500960CEB060847
S315010032C01BD9C7F5006507EB5515AFB27546009ECC
S315010032D0A8F80070FF2EDCD9059E009F77542E4674
S315010032E00131099D8D4240F236830D9D9D4289D85B
S315010032F031E3089B5CE74E1EB2E7009EA7EB57172A
S315010033000136A5EB0E05A2EB0E02BFB20096DEE773
S31501003310069FA1EB0A06514528BF0027BE46059F19
S31501003320BBF10A0F3E4416F80E9034BF032606265B
S31501003330ABEB060B01264FF4807800964FEA49095C
S31501003340009E09EA08070A9708EB06070A9EB5F1E7
S31501003350807F38BF13F801EB37440CEB470638BFC3
S315010033602D023CF8177038BF4EEA02224FEAD52EDD
S3150100337007FB0EFE1096009E96454FEA46060096FE
S315010033800ED9C7F5006507EB5515AFB20A9D28EAB8
S3150100339005087546109E3780009EFF2ECED99BE705
S315010033A0009EA7EB57170136DDF82880A5EB0E0521
S315010033B0A2EB0E02BFB20096ECE7761BA7EB5717FE
S315010033C0B6F1807F24F81C70A2EB05020BF1C0094F
S315010033D03CBF13F8015B360234F8197038BF45EA71
S315010033E00222F50A7D4395424FEA490C40F20581D6
S315010033F0C7F5006607EB561624F81960049E129F5E
S315010034000A96039E0BF10C0B0496029ECDE902A6C9
S31501003410B5F1807F3CBF13F8016B2D02B7F800C0F0
S3150100342038BF46EA0222EE0A0CFB06F6964240F245
S31501003430A3814FF0000ECCF500650CEB55153D80D0
S3150100344007EB081704374FF008094FF0010CB6F1E6
S31501003450807F38BF13F8018B4FEA4C0C38BF360218
S3150100346037F80C5038BF48EA02224FEAD62805FB46
S3150100347008F8904507EB0C0A40F2AE81C5F50066E7
S3150100348005EB5616B5B24646CC45AAF80050DED332
S31501003490AEEB090E0EEB0C05BBF10B0F009540F2DE
S315010034A0B382032D94BF4FEAC51E4FF49C6E4FF0B5
S315010034B0010598BF0EF5587EB6F1807F4FEA4505A6
S315010034C038BF13F801CB05EB0E0838BF360234F8C6
S315010034D0087038BF4CEA02224FEAD62C07FB0CFCD7
S315010034E0944540F28381C7F5006607EB5616B7B2DD
S315010034F066463F2D24F80870DED9403D032D3FD99D
S3150100350005F0010C0D2D4FEA55074CF0020C00F2A7
S3150100351083814FF00108013FC5F1004E0CFA07FC0B
S315010035200EF2AF2EE6444FEA4E050B95C2466546AE
S315010035300A970B9FB6F1807F4FEA480838BF13F808
S31501003540019B07EB080E38BF360234F80EC038BFB0
S3150100355049EA02224FEAD6290CFB09F9914540F2C4
S315010035604E81CCF500660CEB56161FFA86FC4E46CC
S315010035700A9F24F80EC0013F4FEA4A0A0A97D8D19A
S31501003580079F05F1010A002F40F03C82019FAF42DF
S3150100359040F25782BBF1130F34BF4FF0070B4FF0C8
S315010035A00A0B009F099D0237B5EB010CB84600F0E6
S315010035B04882BC4528BFBC46069FA1EB0A0551457A
S315010035C028BF00273D44019F67440197A8EB0C07DC
S315010035D00B97069F7F1BBC45059F0F4400F21C827B
S315010035E0A5EB0108059D614405EB010C17F808E000
S315010035F007F801EBBC45F9D173E6A7EB5717761B24
S31501003600521B24F81970079D019F3D4303D10120E8
S3150100361015B0BDE8F08FB6F1807F38BF13F8015BB6
S315010036200CF1180938BF360234F8097038BF45EA7B
S315010036300222F50A7D43954250D9C7F5006607EB8C
S315010036405616B5F1807F24F809600EF1F00E38BFE9
S3150100365013F8016BC64438BF2D0234F81E7038BF0B
S3150100366046EA0222EE0A7E4396421FD9C7F5006555
S3150100367007EB5515069F24F81E50514528BF002714
S31501003680BC46059FA1EB0A053D4415F80C50BBF15C
S31501003690060F7D54019D88BF4FF00B0B05F1010507
S315010036A098BF4FF0090B013101951AE6AD1B921B2C
S315010036B0029ECDF808A0B246A7EB571724F81E7054
S315010036C0049EBBF1060F0A96039E8CBF4FF00B0BAF
S315010036D04FF0080BCDE903A6119F99E6761BA7EBE0
S315010036E05717B6F1807F24F80970A2EB05020CF199
S315010036F0300E3CBF13F8015B360234F80E7038BF4A
S3150100370045EA0222F50A7D43954206D9C7F50066C8
S3150100371007EB561624F80E60D2E7761BA7EB571770
S31501003720B6F1807F24F80E70A2EB05020CF1480C6D
S315010037303CBF13F8015B360234F80C7038BF45EA1A
S315010037400222F50A7D4395420AD9C7F5006607EBC1
S31501003750561624F80C60DDE9026702970396AFE777
S31501003760A7EB571724F80C70049F521B751B029E7A
S315010037700297039F0497F1E7AD1BACEB5C1CB5F117
S31501003780807FA7F800C0A2EB06023CBF13F8016BCD
S315010037902D02B7F802C038BF46EA0222EE0A0CFB38
S315010037A006F696420BD9CCF500650CEB551507EBE1
S315010037B008187D804FF0080E08F5827743E6ACEBDA
S315010037C05C1C921BA7F802C04FF0100E4FF48079D3
S315010037D007F50177AE1B38E6A5EB5515A6EB0806EE
S315010037E0A2EB0802ADB20CF1010C4DE6A7EB57179F
S315010037F0A6EB0C06A2EB0C02BFB2013579E6ACEBE7
S315010038005C1CA6EB0906A2EB09021FFA8CFC08F167
S31501003810010845EA0A05ABE6053FB6F1807F3EBFE2
S3150100382013F8015B360245EA02227608921BD51788
S3150100383005F1010E013F05EA06050EEB4C0C2A4483
S31501003840EBD1B6F1807F3CBF13F8017B36024FEA1C
S315010038500C15B4F846C638BF47EA0222F70A0CFB34
S3150100386007F7974204F2446E40F2AC80CCF500664D
S315010038700CEB56161FFA86FC0226B7F1807FA4F8D8
S3150100388046C63EF816A04FEA460C0EEB46093EBF69
S3150100389013F8016B3F0246EA0222FE0A0AFB06F60C
S315010038A0964240F29980CAF500680AEB58181FFA49
S315010038B088F8A9F80080B6F1807F3CBF13F8017B38
S315010038C036023EF81CA038BF47EA0222F70A0AFB75
S315010038D007F797424FEA4C080EEB4C0940F28780F6
S315010038E0CAF5006C0AEB5C1C1FFA8CFCB7F1807FF1
S315010038F0A9F800C038BF13F8016B3EF818903CBF19
S315010039003F0246EA0222FE0A09FB06F696424FEA02
S31501003910480C87BFC9F5006809EB5818A9EB591877
S3150100392045F008058FBF1FFA88F8921B1FFA88F821
S31501003930BE1B6F1C2EF80C807FF422AE009CABF1EF
S315010039400C0B04F589740B94DDE902A40294049C22
S3150100395003940A9C0494B6F1807F3CBF13F8014B93
S315010039603602C0E906360B9B38BF44EA022283645D
S31501003970019B0262C362029B4162C363039BC0F85F
S3150100398038A00364049BC0F834B04364036B23B9C5
S31501003990C368019A934298BF03630899FFF7C7FB6F
S315010039A0436A089A9342836C07D282690D998A42C7
S315010039B003D2B3F5897FFFF4E9ABB3F5897F3CD830
S315010039C0002025E6ACEB5C1CD21B1FFA8CFCF71B16
S315010039D045F00105032650E7AAEB5A18921B1FFA78
S315010039E088F80CF1010C45F00205BE1B61E7AAEB54
S315010039F05A1CD21B1FFA8CFC08F1010845F004057C
S31501003A00F71B73E7079FC2E5DDE902A50295049D51
S31501003A1003950A9D0495C4E5B9460CEB070E059F6F
S31501003A2017F80580069F09F8018B0135AF4208BFDB
S31501003A300025CE45F3D1614453E44FF48973836481
S31501003A40BEE74162E3E52DE9F047D0E907530127D7
S31501003A508468D0F82C80A740D0F834C0013F0669AD
S31501003A6007EA080707EB0C1EB5F1807F36F81E90B2
S31501003A700A4407D2914280F0DC8111F8014B2D02F4
S31501003A8044EA0323EC0A09FB04F4A34278D2056B4A
S31501003A9006F66C6658EA050519D0D0E900E7012556
S31501003AA0BD40013D05EA080505FA0EF7456AD0F85D
S31501003AB0148005B9856A013D18F80550CEF1080E46
S31501003AC045FA0EF53D444FF4C06707FB0566BCF1A8
S31501003AD0060F20D801204000B4F1807F375A07D263
S31501003AE0914280F0A68111F8015B240245EA032385
S31501003AF0E50A7D43AB4229BF01302C46641B5B1BA3
S31501003B00FF28E8D90120B4F1807F80F0228191421B
S31501003B1028BF00201DE1876BD0F824C04569BC454C
S31501003B20ACEB070E2CBF0027876A05EB0E0010F8D9
S31501003B3007C001204FF480774FEA4C0C07EA0C0EC0
S31501003B403D187544B4F1807F36F8158007D291424D
S31501003B5080F06F8111F8015B240245EA0323E50A2F
S31501003B6008FB05F54000AB422BBF01302C467746DA
S31501003B7027EA0E0724BF641B5B1BFF28DCD9C1E7BC
S31501003B80281B0CF1C00CB0F1807FA3EB04034FEAB4
S31501003B904C0436F81CC007D2914280F04A8111F8D4
S31501003BA0015B000245EA0323C50A0CFB05F5AB429E
S31501003BB080F0A08002204FF0000E06F2646CB5F191
S31501003BC0807FBCF8008007D2914280F0328111F8E3
S31501003BD0014B2D0244EA0323EC0A08FB04F4A34239
S31501003BE080F0EB800CEB071C00270CF1040C4FF066
S31501003BF008094FF001084FEA4808B4F1807F3CF804
S31501003C0008A007D2914280F0148111F8015B2402C9
S31501003C1045EA0323E50A0AFB05F5AB4229BF08F18C
S31501003C2001082C46641B5B1BC845E4D3BEF1030F98
S31501003C303FF669AFA7EB09074744032F88BF4FF447
S31501003C409C674FF001059CBFFF0107F558776D0092
S31501003C5006EB050CB4F1807F3CF807E007D29142F0
S31501003C6080F0E78011F801CB24024CEA03234FEAE6
S31501003C70D42C0EFB0CFC634529BF01356446A4EB2D
S31501003C800C04A3EB0C033F2DE1D9403D032D7FF638
S31501003C903AAF0D2D4FEA550700F2B18005F0010C40
S31501003CA0013F4CF0020CC5F100450CFA07FC05F288
S31501003CB0AF25654406EB45064FF0010C4FEA4C0C67
S31501003CC0B4F1807F36F80CE007D2914280F0B180E2
S31501003CD011F8015B240245EA0323E50A0EFB05F50B
S31501003CE0AB4231BF2C46641B5B1B0CF1010C013F3F
S31501003CF0E4D108E7401B3444B0F1807FB4F818C022
S31501003D00A3EB050307D2914280F0938011F8015B82
S31501003D10000245EA0323C50A0CFB05F5AB4222D294
S31501003D200EF1F00EB5F1807F36F81E4006D29142B3
S31501003D307FD211F8010B2D0240EA0323E80A604302
S31501003D40834208D2B0F1807F71D2914234BF032001
S31501003D500020BDE8F0872D1A1B1A03204FF00C0E28
S31501003D6006F6682C2BE7401BB0F1807FB4F830C013
S31501003D70A3EB050306D291425BD211F8015B000267
S31501003D8045EA0323C50A0CFB05F5AB42E5D3401B07
S31501003D90B0F1807FB4F84840A3EB050306D2914207
S31501003DA047D211F8015B000245EA0323C50A6543C0
S31501003DB0AB4224BF5B1B451BCFE72D1BB5F1807FB3
S31501003DC0BCF80280A3EB040306D2914231D211F86A
S31501003DD0014B2D0244EA0323EC0A08FB04F4A34237
S31501003DE005D20CEB071707F5827C0827FFE61B1B9C
S31501003DF010274FF480790CF5017C2C1BF9E6053F61
S31501003E00B4F1807F06D2914213D211F8015B2402EC
S31501003E1045EA032364081D1BED0F013D2540013FC3
S31501003E20A3EB0503ECD1042706F2446644E703201D
S31501003E308FE700208DE700230122C0E90B33C0E99B
S31501003E40123243628365026570472DE9F74F984642
S31501003E50002704469DF83030D8F80060C8F8007095
S31501003E6000938B461546FFF762F90D9B1F70A36CF5
S31501003E70B3F5897F09D1236A13B901230D9A13700A
S31501003E80206A003818BF01201EE0E36C8BB1A36DD8
S31501003E905EB3042B1BD994F85C30002B40F0D7801D
S31501003EA0D4F85D20E36412BA22624FF0FF32A365B3
S31501003EB0E261636A5B4555D3A36CD3B9236AF3B94F
S31501003EC0042300200D9A137003B0BDE8F08F5A1C2D
S31501003ED0A26515F8012B234483F85C20D8F800303D
S31501003EE0013E0133C8F80030D1E7042BD3D80323B0
S31501003EF0E7E7009B002B40F0A7800223E1E7009B48
S31501003F00002BFAD00123226D9AB1D4E90021114484
S31501003F104FF440728A400021206902F236728A42C9
S31501003F2022D80122C4E91022C4E90E2200226263CA
S31501003F302265A76D002F68D1132E1BD943B33246D4
S31501003F4029462046FFF77FFDF0B93246294604F19E
S31501003F505C0001F08CFEA665D8F800303344C8F841
S31501003F600030C4E70023CEE74FF4806720F81170D4
S31501003F700131D4E73246294620460193FFF763FD16
S31501003F80019B0028E1D00BB102285DD12A4602E04F
S31501003F90A6F114022A4459462046A561FFF7F1F815
S31501003FA0002854D1A369D8F800205D1B2A44C8F81B
S31501003FB00020761B1D465AE715F809100137D15521
S31501003FC009F10109132F25D9A76504F15C0A93BBF1
S31501003FD0524659462046C4F818A0FFF7D2F8B0BB9E
S31501003FE0A369A3EB0A039F4236D3FA1A914533D349
S31501003FF0D8F8001009EB0302D31B19443744C8F85B
S3150100400000102B44BE1AA065D4E74FF0000904F155
S315010040105B02D7E7B145CFD104F15C0A3A46514676
S315010040202046A7650193FFF70EFD019B88B9D8F8D5
S3150100403000304B4493E73A4651462046FFF703FDCD
S315010040400028F4D00228C3D002230D9A1370012050
S315010040503AE7002BBCD0F5E70B2035E72DE9F04F09
S3150100406089B0DDF848809A469DF84C3004460493A1
S31501004070D8F800308B460293002316461768136062
S31501004080C8F80030029B149A0793D4E909318B4290
S3150100409004BF00236362656A20464B1BBB4232BFE5
S315010040A00023049B7919CDE90032524607ABFFF78D
S315010040B0CCFE079A029B61699B1A0293D8F80030DD
S315010040C003901344C8F80030636A5846A3EB050908
S315010040D0294492444A46059301F0C9FD059BCB4408
S315010040E0ED1A33682F444B443360039B23B9B9F16E
S315010040F0000F01D0002FC5D1039809B0BDE8F08F9C
S3150100410010B504464B680846216998470023236188
S3150100411010BD70B54FF440751646D1E9003213440F
S315010041209D400369044605F2367513B1436DAB42F2
S315010041300ED031462046FFF7E3FF3046336869006B
S3150100414098472061B0FA80F040096565400070BD6E
S315010041500020FCE738B504460D46FFF7D1FF6B6832
S315010041602846616998470023636138BD042A01D84E
S3150100417004207047D1F80130B3F5805F38BF4FF4A2
S315010041808053C3600A78E02AF2D80923B2FBF3F31D
S3150100419003EBC301521AD2B202600522B3FBF2F25B
S315010041A0826002EB82029B1ADBB2436000207047F9
S315010041B02DE9F04780468EB00C461646002128228E
S315010041C004A89946DDF858A0FCF7C8DB04A8FCF75B
S315010041D0BBDAB8F1000F0CD10AF2BF7304F1400249
S315010041E054F8041B944243F8041BF9D14FF04008DC
S315010041F0403E5EB306F11F0516F01F0725F01F05A9
S3150100420011D02846FEF77CFE0746F8B12146324614
S3150100421001F02DFDAA1BAE4288BF0022FF21B8196D
S31501004220FCF79CDB3C4600234246CDE90133494677
S315010042302346009504A8FEF7C7F9CAF80C082FB162
S3150100424038460EB0BDE8F047FEF762BE0EB0BDE8D7
S31501004250F0872DE9F04315468BB0804668460F4638
S31501004260DDF8489005F11F06FCF76EDA15F01F041C
S3150100427026F01F0611D03046FEF742FE0446D8B19D
S3150100428039462A4601F0F3FC721BB54288BF00226B
S31501004290FF216019FCF762DB274633463A46414661
S315010042A06846FEF787FAC9F80C082CB120460BB010
S315010042B0BDE8F043FEF72CBE0BB0BDE8F083036901
S315010042C013F0FE0F0CBF0120002070474FF08073E2
S315010042D010B59B6A044698698CB010F4007012D030
S315010042E02822002102A8FCF739DB02A8FCF72CDA08
S315010042F0012101AA02A8FEF7CFF930B9019B9C4220
S3150100430034BF002001200CB010BDA0F111035842AA
S315010043105841F8E74FF080739B6A0246986910F49A
S3150100432080700CD052B1136913F0FF0007D0180A40
S3150100433005D0906B003818BF0120704710467047B2
S3150100434038B54FF080739B6A05469C69E3050DD528
S31501004350FFF7E0FF087020B1A86BBDE83840FCF715
S3150100436075BA84F40060C0F3C02038BD0120FCE7B3
S3150100437040F204632DE9F043446BADB00646204696
S315010043800393FCF73DFA18B900202DB0BDE8F08380
S315010043902046FFF794FF0028F6D04FF080739B6A02
S315010043A09B699B056ED44FF08075D5F834804046E5
S315010043B0FCF726FA0028E7D0AB6A1B69503B984503
S315010043C0E2D8002320460DF10B018DF80B30FFF7E3
S315010043D0B7FF0028D8D02046FCF712FA002857D09C
S315010043E06369012BD0D12046FFF769FF0028CBD0A6
S315010043F0A5690021282207A8CDE904110691FCF739
S31501004400ADDA07A8FCF7A0D901234FF080791A4647
S3150100441004A907A8FDF7E8FFD9F828301B69AB42C4
S31501004420B2D8AE42B0D8059B3344AB42ACD32023BD
S3150100443011AF3246032101930097AB1B07A8FEF784
S315010044409DFB039007A801F0C0F9039B002B9BD1AC
S31501004450D9F8283005F120029B6913F480731CD02A
S315010044609DF80B30B3B1A36B03F124010091043322
S3150100447029463846FDF71CFA03900398B0FA80F0F6
S31501004480400982E7206AFFF721FF00288BD17BE7ED
S315010044902546AEE7D8F83830E6E70093E8E770B589
S315010044A00368044603F16043B3F5C02F4668456BC4
S315010044B08EB002D900200EB070BD0021282204A8BA
S315010044C0CDE901110391FCF749DA04A8FCF73CD9BF
S315010044D0012301A91A4604A8FDF786FF4FF0807251
S315010044E026F08053966A32699A42E3D802991144BA
S315010044F09942DFD3B36925F080504032824203F0FE
S31501004500040301D8814203D2B3FA83F04009D2E70A
S315010045101BB12046FFF72CFFCDE72846FCF770F9C3
S3150100452040B12846FFF7CBFE0028C3D06B69002BAC
S31501004530C1D0EEE70120BEE710B504468AB0684651
S31501004540FCF702D921466846FEF712FC50B940F243
S315010045500220FCF7CDF86846FCF7F6D821466846F6
S31501004560FEF71CFC00200AB010BD10B504468AB047
S315010045706846FCF7E9D821466846FCF779D9B0FACE
S3150100458080F040090AB010BD4FF0FF3313B5044661
S3150100459001A80193FFF7E9FF20B1019BA3422CBFBC
S315010045A00020012002B010BD002070470020704796
S315010045B003461846016881F3088881F30988406833
S315010045C08746FEE708B5FCF7EFF918B9BDE80840DC
S315010045D0FCF7F8B908BD40F68713994213B50446AE
S315010045E012D940F688120021FCF7B8D9002304F647
S315010045F09C02009304F6580104F6081304F14000E6
S31501004600FCF784FE02B010BD40F20520FAE713B5AF
S315010046100446009101464030FCF70EFFC4F88009BC
S3150100462018B141F20703984204D1237C23B1607C7F
S3150100463000F2022002B010BD40F20120FAE72DE996
S31501004640F04387B00DF1080904460E4617460021CE
S31501004650102248461D46DDF83880FCF77FD9002137
S315010046601C22C8F800102846FCF778D932463B468A
S315010046702146CDF8009004F14000FCF7DDFE2368E9
S315010046809A0744BF6269C8F800205B0709D504F19F
S31501004690180304F1340253F8041B934245F8041B32
S315010046A0F9D1D4E90032134314BF002040F2064089
S315010046B007B0BDE8F08340F68810704738B50D465F
S315010046C0044630B110220021FCF748D90020E560EC
S315010046D038BD41F20130FBE72DE9F04304460E46B1
S315010046E090469946002589B0454501D300200AE048
S315010046F0A37A1E2B4CD009D80A2B2CD0142B33D0DD
S31501004700B3B141F2023009B0BDE8F083232B43D0A7
S31501004710282BF6D1725D636813446360735DFF2BCA
S3150100472014D03223A372A37A322B0FD1002051E089
S31501004730725D12092260715D0F2A01F00F0101F10C
S3150100474004016160238103D10A23A3720135CBE7FA
S3150100475042B91E23F9E7725D236813442360735D32
S31501004760FF2BF3D01423F0E72368A8EB05079F423C
S3150100477028BF1F4670193946C8472368013DDB1B10
S3150100478023603D4493B91E23A3720028DED0BAE705
S31501004790735D23812323D8E7725D238943EA0223CC
S315010047A023816368132BBCD12823CEE70028BAD016
S315010047B0A9E7202F28BF20272089E368874228BF41
S315010047C0074669463A46984739466846C847636880
S315010047D0DB1B6360676827B10028EAD00023A37258
S315010047E091E7A772D1E7D0F86837002B14BF0120F3
S315010047F004207047D0F86837002B14BF01200D2024
S315010048007047013801288CBF00200120704710B481
S31501004810D0F8E4461346A4460A465DF8044B00F573
S31501004820E7614069604710B4D0F8E4461346A446F0
S315010048300A465DF8044B00F5E761D0F88C0760473E
S3150100484010B4D0F8E4461346A4460A465DF8044B74
S3150100485000F5E761D0F8DC0660474FF08073F7B5E5
S315010048605A6B9B6A04461B69503B9A4230D8936B3C
S315010048700BB3596C026E91421DD803F124020092CA
S3150100488000F1640500F18407D0F8286704333A463D
S3150100489029468069B04740F20463984207D1002354
S315010048A000933A462946D4F82867A069B04730B143
S315010048B01A2384F8603741F2060003B0F0BD0E23D7
S315010048C084F86037012341F2030084F87937F4E76D
S315010048D041F20100F1E72DE9F7434FF08072936A47
S315010048E0044603F17F41B1F5004F6ED2D2F8348010
S315010048F01A69503A90456BD8D0F8A4709E6900F5B4
S31501004900E765D0F8EC3629464069FFB206F00109A1
S31501004910984706F48076FFB9B9F1000F13D1D4F8A0
S31501004920E836606904F1A8019847002845D10F23AC
S31501004930D4F8DC0684F860372946D4F8E03698477F
S3150100494041F203003EE094F8793743B9A6B9002352
S315010049500093D4F8286709E094F879375BB104F13C
S3150100496040030093D4F8286704F1200304F1C80238
S3150100497004F1A8011BE0EEB1D8F8383003B303F116
S315010049802402009204F1A80704F1C8080433424640
S315010049903946D4F828676069B04740F20463984203
S315010049A0C3D10023424639460093D4F8286760698B
S315010049B0B047BAE7B9F1000FC9D11A2384F86037B5
S315010049C041F2060003B0BDE8F0834FF48170F9E7C8
S315010049D041F20100F6E7D0F8EC20034691070BD52A
S315010049E090F8782742F0010280F87827102241F2E8
S315010049F0030083F8602770474FF08072926A9269CC
S31501004A009207F3D51A2241F20A00F2E7002380F851
S31501004A106037C0F86C3741F20300704790F87A3777
S31501004A20002B0CBF0E23052380F860370023C0F846
S31501004A306C3741F20300704741F2070070470022CC
S31501004A40D0F8843741F207005A747047002320F0EA
S31501004A50805051F82320824204D00133082BF8D12B
S31501004A60FF207047D8B2704710B50446D0F8843796
S31501004A708CB000F1F002243300F5807152F8040B7A
S31501004A808A4243F8040BF9D10021282202A8FBF738
S31501004A9065DFD4F8303702A89847D4F8183701A94A
S31501004AA002A8984798B9019BD4F804219A4219D8CB
S31501004AB0D4F8002141F20900934241F203028EBF6C
S31501004AC01A230023104684F860370CB010BD41F25A
S31501004AD00302112818BF1A2341F2090004BF00235B
S31501004AE01046F0E71A2341F20900ECE7036803F0E8
S31501004AF07F43B3F1044F05D01A2380F8603741F2A2
S31501004B0009007047002380F86037C0F86C374368A6
S31501004B10C0F8943741F20300704730B50446A3B09C
S31501004B20282200216846FBF719DFD4F8303768469A
S31501004B309847082300226846D4F800570AA9A847CF
S31501004B4070B94FF0807104F5F3620AAB04F5F760B2
S31501004B505D6842F8041F8242294403F10C03F7D130
S31501004B60002341F2030084F86037C4F86C3723B0A0
S31501004B7030BDF0B505460020059ED5F86C47B0421C
S31501004B80044406D09E685F680644BE4201D2A24232
S31501004B9002D8C5F86C47F0BD1F680130BE5D0E55E1
S31501004BA0EAE7B3B5D0F86C570B46C5F188058822FC
S31501004BB000F11C0100950446FFF7DBFF9A68854268
S31501004BC002449A60D4F890370344C4F8903720D849
S31501004BD0D4F86837D4F86C2704F5E7651344A0695F
S31501004BE00A46C4F8683729464823D4F8E476B84714
S31501004BF0D4F8EC36A069294698470023012241F2F0
S31501004C00030084F8603784F87A27C4F86C3702B059
S31501004C10B0BD0020FBE737B5D0F86C27D0F8645754
S31501004C200B46AD1A0095442200F1A4010446FFF794
S31501004C30A0FF9A68854202449A60D4F890370344EB
S31501004C40C4F890371AD8D4F86837D4F86C271344C7
S31501004C50C4F868370023C4F86C37D4F8A43013F0CD
S31501004C60FD031BBF1A2340F2036041F2030084F8DF
S31501004C70603708BF84F8603703B030BD0020FBE71A
S31501004C80F7B5D0F86C770D46C7F108070B46082231
S31501004C9000F1E80100970446FFF76BFF0646AB6893
S31501004CA02968024619442046FCF71EFBAB68B74249
S31501004CB03344AB60D4F890373344C4F890370FD8F7
S31501004CC0D4F86837D4F86C2741F203001344C4F8CA
S31501004CD06837002384F86037C4F86C3703B0F0BD39
S31501004CE00020FBE7F7B5D0F86C770D46C7F118073A
S31501004CF00B46182200F1F00100970446FFF739FF31
S31501004D000646AB682968024619442046FCF7ECFAC8
S31501004D10AB68B7423344AB60D4F890373344C4F838
S31501004D2090370FD8D4F86837D4F86C2741F20300CE
S31501004D301344C4F86837002384F86037C4F86C3725
S31501004D4003B0F0BD0020FBE7F7B5D0F86C37D0F81B
S31501004D5064770D46FF1A44220B46009700F58471CD
S31501004D600446FFF706FF0646AB6829680246194462
S31501004D702046FCF7B9FAAB68B7423344AB60D4F8C6
S31501004D8090373344C4F8903719D894F80831012B79
S31501004D9006D01A2340F2036084F8603703B0F0BDF1
S31501004DA0D4F86837D4F86C2741F203001344C4F8E9
S31501004DB06837002384F86037C4F86C37EEE70020C3
S31501004DC0ECE7F7B5D0F86C770D46C7F108070B4647
S31501004DD0082200F5A67100970446FFF7CAFE0646AB
S31501004DE0AB682968024619442046FCF77DFAAB6890
S31501004DF0B7423344AB60D4F890373344C4F89037A4
S31501004E0018D8D4F86C27D4F8683741F20300134454
S31501004E10C4F86837D4F884371A6842F001021A6078
S31501004E20D4F84C219A63002384F86037C4F86C37B0
S31501004E3003B0F0BD0020FBE7F7B5D0F86C770D465F
S31501004E40C7F1D4070B46D42200F5C061009704468A
S31501004E50FFF78FFE0646AB682968024619442046CD
S31501004E60FCF742FAAB68B7423344AB60D4F89037EB
S31501004E703344C4F8903770D8D4F86437D4F86C2723
S31501004E801833C4F80838D4F868371344C4F86837B7
S31501004E9094F80136012B84F8883743D194F87827A2
S31501004EA0802142F0010284F878270022CDE9002111
S31501004EB00221D4F82057D4F87C0704F5C162A8472B
S31501004EC094F80006431E012B84F8890713D8D4F8F9
S31501004ED0A835C4F87037FFF794FC60B194F88907D8
S31501004EE0FCF730F938B194F878379B0603D5436857
S31501004EF00BB1204698472046FCF734F90546E0B940
S31501004F00B4F806365E01C4F8D866F3B13046FDF74B
S31501004F10F7FFC4F8D40698B91A2341F2010584F8BB
S31501004F2060370AE04FF080739B6A9B699A07C7D581
S31501004F301A2341F20A0584F86037284603B0F0BD0A
S31501004F4032462946FBF70ADD1B2384F86037002326
S31501004F5041F20305C4F86C37EFE70025EDE7F7B535
S31501004F60D0F8D826D0F86C770D46D71B00970B469C
S31501004F70D0F8D4160446FFF7FCFD0646AB6829684F
S31501004F80024619442046FCF7AFF9AB68B7423344F1
S31501004F90AB60D4F890373344C4F890370FD8D4F8BF
S31501004FA06837D4F86C2741F203001344C4F8683714
S31501004FB0002384F86037C4F86C3703B0F0BD0020D5
S31501004FC0FBE72DE9F34790F8BC6704460C2E8846AB
S31501004FD07AD84FF05C0A0AFB0607D0F86C37D0F88E
S31501004FE0645707F5AA77ED1A52460B4600953946DE
S31501004FF0FFF7BFFD8146D8F80830D8F80010024601
S3150100500019442046FCF770F9D8F808304D454B4451
S31501005010C8F80830D4F890374B44C4F8903700F2FA
S31501005020B2800AFB064595F86CA1BAF1010F07D0CB
S315010050301A2340F2036084F8603702B0BDE8F087B6
S31501005040D4F86837D4F86C271344C4F868374FF09E
S315010050508073D3F8289009F17F43B3F5004F80F0B0
S315010050609480D5F8580104F29C71FFF7EFFCD4F84F
S315010050708437804658BBD5F8602195F856115A6198
S3150100508095F85721120442EA012295F855110A436F
S315010050905A630120D4F8842708F10108136800FA3D
S315010050A008F0034313604FF080739B6AD4F88417AA
S315010050B09B6913F480334AD10A88002A41D1012B16
S315010050C045D91A2384F8603741F20100B5E7012872
S315010050D024D1D5F85C11D5F86001D5F86421996120
S315010050E01A62D86195F8573195F856211B0443EA9F
S315010050F0022395F855211343C4F81038D9F818300E
S315010051009B05C6D529B91A2341F20C0084F86037EC
S3150100511093E7FFF7DBF80028BBD1F4E70728B8D9F6
S31501005120FF280CD194F8BD2702F128010AFA01F0F3
S31501005130196801320143196084F8BD27B3E70020DD
S31501005140B1E702F001052B44DBB25208B5E78B68E3
S3150100515018420BD05C2202FB0646D6F86831394666
S31501005160C4F8983704F2A45000F081FD002384F8B6
S315010051706037C4F86C3794F8BC3741F20300013349
S3150100518084F8BC3759E7002057E74FF4817054E79C
S315010051900123D0F884272DE9F04113744FF0807371
S315010051A09B6A044603F17F41B1F5004F8EB080F052
S315010051B0A7809B69D80304D4D2E90032013B13438B
S315010051C012D1D4F8EC36D4F8DC0604F5E761984739
S315010051D0D4F8E836D4F8DC0604F586719847D4F895
S315010051E0843700BB01225A74D4F884375A7C002ACA
S315010051F000F081804FF08072926A9269D1031CD4CB
S31501005200D3E900164A0743D40323012505FA03F21D
S3150100521002EA010006EAE272104303F1010337D103
S31501005220092BF3D11BE000225A741A2341F2100014
S3150100523084F860370EB0BDE8F081D3E902164B075A
S3150100524026D40323012505FA03F202EA010006EA40
S31501005250E272104303F101031AD1092BF3D14FF086
S3150100526080739B6A996911F4803144D1282204A87C
S31501005270FBF774DBD4F8303704A89847D4F81C3709
S31501005280D4F8001104A89847A8B341F20900D1E760
S315010052902822002104A8FBF761DB0027D4F8303768
S315010052A004A89847D4F8A80504F29C71FFF7CEFB31
S315010052B04023D4F8B085CDE9017700930146D4F8AF
S315010052C0F85606463A4604F2BF7304A8A8470546AF
S315010052D028B1D4F884375F7441F20700AAE7424641
S315010052E03146D4F8FC3604A898470028B7D0D4F83C
S315010052F084375D74F0E71D23002084F8603799E751
S315010053004FF4817096E7F7B5D0F86C37D0F864772B
S315010053100D46FF1A03220B46009700F614010446B8
S31501005320FFF727FC0646AB68296802461944204662
S31501005330FBF7DAFFAB68B7423344AB60D4F890377A
S315010053403344C4F8903719D8D4F86C17D4F86827C1
S315010053500A44C4F86827002284F86027C4F86C2739
S31501005360D4F8942702F108018B420AD14AB12946A1
S31501005370204603B0BDE8F040FFF70ABF002003B0A6
S31501005380F0BD41F20300FAE770B504460E46D6E9D0
S315010053900151A942D4F86827D4F8643701D293425F
S315010053A015D800209342D4F89437D4F8901703F116
S315010053B0080204BF84F8600741F2030091421FD13D
S315010053C0F3B131462046BDE87040FFF7E1BE6D1AE4
S315010053D09B1A9D4228BF1D4633682A46194420461A
S315010053E0FFF72EFAD4F868372B44C4F86837B36848
S315010053F02B44B360D4F890372B44C4F89037C6E7F2
S3150100540070BD70B504460E46D6E90151A942D4F8DD
S315010054106827D4F8643701D2934215D80020934205
S31501005420D4F89437D4F8901703F1080204BF84F82E
S31501005430600741F2030091421FD1F3B13146204684
S31501005440BDE87040FFF7A4BE6D1A9B1A9D4228BFA6
S315010054501D4633682A4619442046FBF745FFD4F812
S3150100546068372B44C4F86837B3682B44B360D4F863
S3150100547090372B44C4F89037C6E770BDF0B50446A3
S315010054800E4617461D468FB004A8FBF75DD904F1F9
S315010054902403019304F1340300932A462146CDE9FE
S315010054A0026704F1200304A8FCF7B2FE0FB0F0BDB9
S315010054B000F0A6B902462023FDF7AABA10B560B1DD
S315010054C059B1002351F8234050F82320944207D1C3
S315010054D00133082BF6D1002010BD40F20160FBE735
S315010054E040F20460F8E710B5ADF51B6D40F6881281
